:100000000C9454000C9473000C9473000C947300C3
:100010000C9473000C9473000C9473000C94730094
:100020000C9473000C9473000C9473000C94730084
:100030000C9473000C941A010C9473000C947300CC
:100040000C9473000C9473000C9473000C94730064
:100050000C9473000C9473000C9473000C94730054
:100060000C9473000C9473000C9473000C94730044
:100070000C9473000C9473000C9473000C94730034
:100080000C9473000C9473000C947300E301EA0168
:10009000F10107020E0219022002DB024B02DB0211
:1000A0005D02DB029B02DB0211241FBECFEFD0E416
:1000B000DEBFCDBF11E0A0E0B1E0E8E7F6E000E090
:1000C0000BBF02C007900D92A231B107D9F721E012
:1000D000A2E1B1E001C01D92AC31B207E1F70E948C
:1000E000E0020C943A030C940000CF93DF9300D00D
:1000F0001F92CDB7DEB789837B836A8389818A307B
:1001000031F48A819B81BC018DE00E94750080ECF6
:1001100090E0FC018081882F90E080729927892BE4
:10012000B1F386EC90E02981FC01208380E090E02F
:100130000F900F900F90DF91CF910895CF93DF93A1
:1001400000D000D0CDB7DEB769837A838B839C83E0
:1001500089819A81AB81BC8180930E0190930F01BC
:10016000A0931001B093110180910E0190910F01A5
:10017000A0911001B091110180931301909314018B
:10018000A0931501B093160100000F900F900F90EF
:100190000F90DF91CF910895CF93DF93CDB7DEB766
:1001A00081E890E02BE0FC01208388E890E02DE7D7
:1001B00030E0FC01318320838FE690E022E0FC01F7
:1001C000208384E890E0FC011182108280910E016E
:1001D00090910F01A0911001B09111018093130132
:1001E00090931401A0931501B09316018FE590E050
:1001F0002FE530E0F90120812068FC012083000018
:10020000DF91CF910895CF93DF93CDB7DEB781E82B
:1002100090E0FC0110820000DF91CF910895CF9310
:10022000DF93CDB7DEB781E0809312010000DF914C
:10023000CF9108951F920F9200905F000F921124AA
:1002400000905B000F922F933F934F935F936F93B8
:100250007F938F939F93AF93BF93EF93FF93CF932E
:10026000DF93CDB7DEB78091130190911401A09177
:100270001501B09116010197A109B10980931301ED
:1002800090931401A0931501B0931601809113016E
:1002900090911401A0911501B0911601892B8A2B20
:1002A0008B2B91F40E940F0180910E0190910F0110
:1002B000A0911001B091110180931301909314014A
:1002C000A0931501B09316010000DF91CF91FF912B
:1002D000EF91BF91AF919F918F917F916F915F91BE
:1002E0004F913F912F910F9000925B000F900092E1
:1002F0005F000F901F901895CF93DF93CDB7DEB7B7
:100300002C970FB6F894DEBF0FBECDBF6D837E83F2
:100310008F83988729873A874B875C878D819E8159
:10032000AF81B88529853A854B855C85BC01CD01B7
:100330000E940F03DC01CB0189839A83AB83BC83CA
:1003400089819A81AB81BC81892B8A2B8B2B29F4E3
:1003500089859A85AB85BC8511C089859A85AB85D1
:10036000BC858D839E83AF83B88789819A81AB8159
:10037000BC8189879A87AB87BC87D0CFBC01CD0170
:100380002C960FB6F894DEBF0FBECDBFDF91CF9194
:100390000895CF93DF93CDB7DEB780911801909188
:1003A0001901CC01A0E0B0E040E050E026E030E0F0
:1003B000841B950B2817390708F44DC08A5B9F4FA3
:1003C000FC010C94310381E090E09093190180933B
:1003D00018014BC082E090E09093190180931801BE
:1003E00044C080911701813039F483E090E090930C
:1003F00019018093180134C080911701823081F572
:1004000085E090E0909319018093180129C084E061
:1004100090E0909319018093180127C080911701F3
:10042000882301F582E090E09093190180931801F0
:1004300019C086E090E0909319018093180115C0CF
:1004400080911701882381F482E090E09093190154
:100450008093180109C0109219011092180105C06B
:10046000000003C0000001C00000809118019091BD
:100470001901CC01A0E0B0E040E050E026E030E01F
:10048000841B950B2817390708F493C0835B9F4F93
:10049000FC010C94310310921B0188E080931A0137
:1004A0008BE290E020911B01FC01208388E290E028
:1004B00020911A01FC0120837FC080911A018130B4
:1004C00021F482E080931A012FC080911A018230BA
:1004D00021F484E080931A0127C080911A018430AE
:1004E00021F488E080931A011FC080911A0188309E
:1004F00021F480E180931A0117C080911A018031A4
:1005000021F480E280931A010FC080911A01803299
:1005100021F480E480931A0107C080911A0180348D
:1005200019F480E880931A0188E290E020911A0182
:10053000FC01208341C080911A01803821F480E4BD
:1005400080931A012FC080911A01803421F480E237
:1005500080931A0127C080911A01803221F480E132
:1005600080931A011FC080911A01803121F488E024
:1005700080931A0117C080911A01883021F484E019
:1005800080931A010FC080911A01843021F482E017
:1005900080931A0107C080911A01823019F481E01A
:1005A00080931A0188E290E020911A01FC012083D7
:1005B00003C0000001C000000000DF91CF9108954A
:1005C000CF93DF93CDB7DEB781E290E0FC011082DC
:1005D00082E290E02FEFFC01208387E290E02FEF92
:1005E000FC01208388E290E0FC0110828AE290E026
:1005F0002FEFFC0120838BE290E0FC01108210922F
:100600001701109219011092180180E290E0FC018C
:1006100080818095809317010E94C901F6CFA1E2E5
:100620001A2EAA1BBB1BFD010DC0AA1FBB1FEE1F6C
:10063000FF1FA217B307E407F50720F0A21BB30BB7
:10064000E40BF50B661F771F881F991F1A9469F733
:1006500060957095809590959B01AC01BD01CF018F
:100660000895EE0FFF1F0024001C0BBE0790F691AB
:08067000E02D0994F894FFCF7E
:1006780000000002000000007500000000000100FA
:02068800000070
:00000001FF
