:100000000C9446000C9465000C9465000C946500FB
:100010000C9465000C9465000C9465000C946500CC
:100020000C9465000C9465000C9465000C946500BC
:100030000C9465000C940C010C9465000C94650004
:100040000C9465000C9465000C9465000C9465009C
:100050000C9465000C9465000C9465000C9465008C
:100060000C9465000C9465000C9465000C9465007C
:100070000C9465000C9465000C9465000C9465006C
:100080000C9465000C9465000C94650011241FBE4F
:10009000CFEFD0E4DEBFCDBF11E0A0E0B1E0E8EFEC
:1000A000F7E000E00BBF02C007900D92A231B1074C
:1000B000D9F721E0A2E1B1E001C01D92AF32B20751
:1000C000E1F70E945A020C94FA030C940000CF93BB
:1000D000DF9300D01F92CDB7DEB789837B836A831D
:1000E00089818A3031F48A819B81BC018DE00E9434
:1000F000670080EC90E0FC018081882F90E08072A6
:100100009927892BB1F386EC90E02981FC012083AB
:1001100080E090E00F900F900F90DF91CF910895C5
:10012000CF93DF9300D000D0CDB7DEB769837A8359
:100130008B839C8389819A81AB81BC8180930E01E2
:1001400090930F01A0931001B093110180910E01C3
:1001500090910F01A0911001B091110180931301B2
:1001600090931401A0931501B093160100000F9015
:100170000F900F900F90DF91CF910895CF93DF9361
:10018000CDB7DEB781E890E02BE0FC01208388E862
:1001900090E02DE730E0FC01318320838FE690E092
:1001A00022E0FC01208384E890E0FC0111821082AF
:1001B00080910E0190910F01A0911001B091110159
:1001C0008093130190931401A0931501B09316012D
:1001D0008FE590E02FE530E0F90120812068FC01F7
:1001E00020830000DF91CF910895CF93DF93CDB7A7
:1001F000DEB781E890E0FC0110820000DF91CF9132
:100200000895CF93DF93CDB7DEB781E080931201DD
:100210000000DF91CF9108951F920F9200905F0030
:100220000F92112400905B000F922F933F934F93F6
:100230005F936F937F938F939F93AF93BF93EF934E
:10024000FF93CF93DF93CDB7DEB7809113019091E9
:100250001401A0911501B09116010197A109B109EE
:100260008093130190931401A0931501B09316018C
:100270008091130190911401A0911501B091160184
:10028000892B8A2B8B2B91F40E94010180910E0106
:1002900090910F01A0911001B09111018093130171
:1002A00090931401A0931501B09316010000DF9103
:1002B000CF91FF91EF91BF91AF919F918F917F91DE
:1002C0006F915F914F913F912F910F9000925B0042
:1002D0000F9000925F000F901F901895CF93DF93BF
:1002E000CDB7DEB72C970FB6F894DEBF0FBECDBFEB
:1002F0006D837E838F83988729873A874B875C87B6
:100300008D819E81AF81B88529853A854B855C8535
:10031000BC01CD010E94D803DC01CB0189839A8303
:10032000AB83BC8389819A81AB81BC81892B8A2B69
:100330008B2B29F489859A85AB85BC8511C089856D
:100340009A85AB85BC858D839E83AF83B887898171
:100350009A81AB81BC8189879A87AB87BC87D0CFD4
:10036000BC01CD012C960FB6F894DEBF0FBECDBFF9
:10037000DF91CF910895CF93DF9300D0CDB7DEB753
:100380009A83898389819A81892B19F01A8219822B
:1003900001C0000089819A81892B09F00BC088E295
:1003A00090E02CE3FC0120838BE290E027EDFC0140
:1003B0002083000089819A810F900F90DF91CF9167
:1003C0000895CF93DF9300D0CDB7DEB79A838983AA
:1003D00089819A81892B19F01A82198201C0000043
:1003E00089819A81892B09F00BC088E290E024E290
:1003F000FC0120838BE290E02FEEFC0120830000C3
:1004000089819A810F900F90DF91CF9108952F925B
:100410003F92CF93DF93CDB7DEB72E970FB6F89408
:10042000DEBF0FBECDBF6D837E838F839887298704
:100430003A874B875C873E862D868D819E81AF8172
:10044000B88529853A854B855C85BC01CD010E9424
:10045000D803DC01CB0189839A83AB83BC83898178
:100460009A81AB81BC81892B8A2B8B2B29F48985BE
:100470009A85AB85BC8511C089859A85AB85BC857D
:100480008D839E83AF83B88789819A81AB81BC813C
:1004900089879A87AB87BC87D0CFBC01CD012E96C8
:1004A0000FB6F894DEBF0FBECDBFDF91CF913F9066
:1004B0002F9008952F923F920F931F93CF93DF9326
:1004C000CDB7DEB72D970FB6F894DEBF0FBECDBF08
:1004D00081E290E0FC01108282E290E02FEFFC01CB
:1004E000208387E290E02FEFFC01208388E290E0F8
:1004F000FC0110828AE290E02FEFFC0120838BE266
:1005000090E0FC01108287E191E09B878A8782E27C
:1005100091E09D878C8782E090E098878F838FEFB2
:10052000898789858093170181E090E0A0E0B0E0A1
:100530008093180190931901A0931A01B0931B01A5
:100540008091180190911901A0911A01B0911B019D
:1005500080931C0190931D01A0931E01B0931F0175
:100560008BEB91E09093210180932001898580930A
:10057000220181E090E0A0E0B0E08093230190931D
:100580002401A0932501B09326018091230190912D
:100590002401A0912501B091260180932701909319
:1005A0002801A0932901B0932A0181EE91E0909354
:1005B0002C0180932B018A859B85FC01818192818E
:1005C000A381B4818B839C83AD83BE8381E090E063
:1005D0009A83898329C089819A81880F991F9E01F6
:1005E0002F5F3F4F820F931F0996FC0180819181FD
:1005F000FC0121813281438154818B819C81AD81B9
:10060000BE81BE01665F7F4F1B01BC01CD010E9410
:100610000702DC01CB018B839C83AD83BE83898180
:100620009A8101969A83898329813A818F8198855D
:100630002817390780F28B819C81AD81BE81BC0176
:10064000CD010E9490000E94BE001A821982A0C0B3
:1006500089819A81880F991F9E012F5F3F4F820FDA
:10066000931F0996FC0180819181FC0125813681CF
:100670004781508589819A81880F991FBE016F5FDC
:100680007F4F860F971F0996FC0180819181FC01A5
:1006900081819281A381B481281739074A075B07BA
:1006A00009F045C089819A81880F991F9E012F5FAB
:1006B0003F4F820F931F0996FC01008111818981B0
:1006C0009A81880F991F9E012F5F3F4F820F931FC2
:1006D0000996FC0180819181FC0121853285898107
:1006E0009A81880F991FAE014F5F5F4F840F951F4E
:1006F0000996FC0180819181FC018081082E000C0B
:10070000990BF9010995F801808389819A81880FF5
:10071000991F9E012F5F3F4F820F931F0996FC0187
:1007200080819181FC011582168217821086898151
:100730009A81880F991F9E012F5F3F4F820F931F51
:100740000996FC016081718189819A81880F991FC6
:100750009E012F5F3F4F820F931F0996FC018081FE
:100760009181FC0125813681478150858B819C8157
:10077000AD81BE81820F931FA41FB51FFB0185832E
:100780009683A783B08789819A8101969A8389830A
:1007900029813A818F8198852817390708F458CF25
:1007A0000000809112018823E1F3109212014DCFD5
:1007B000A1E21A2EAA1BBB1BFD010DC0AA1FBB1F65
:1007C000EE1FFF1FA217B307E407F50720F0A21BD7
:1007D000B30BE40BF50B661F771F881F991F1A9444
:1007E00069F760957095809590959B01AC01BD016E
:0807F000CF010895F894FFCF3A
:1007F8000000000200000000670000000000010087
:020808000000EE
:00000001FF
